{
  "contractName": "Rewards",
  "abi": [
    {
      "inputs": [
        {
          "internalType": "address",
          "name": "_nft",
          "type": "address"
        }
      ],
      "stateMutability": "nonpayable",
      "type": "constructor"
    },
    {
      "anonymous": false,
      "inputs": [
        {
          "indexed": true,
          "internalType": "address",
          "name": "owner",
          "type": "address"
        },
        {
          "indexed": true,
          "internalType": "address",
          "name": "spender",
          "type": "address"
        },
        {
          "indexed": false,
          "internalType": "uint256",
          "name": "value",
          "type": "uint256"
        }
      ],
      "name": "Approval",
      "type": "event"
    },
    {
      "anonymous": false,
      "inputs": [
        {
          "indexed": true,
          "internalType": "address",
          "name": "previousOwner",
          "type": "address"
        },
        {
          "indexed": true,
          "internalType": "address",
          "name": "newOwner",
          "type": "address"
        }
      ],
      "name": "OwnershipTransferred",
      "type": "event"
    },
    {
      "anonymous": false,
      "inputs": [
        {
          "indexed": true,
          "internalType": "address",
          "name": "from",
          "type": "address"
        },
        {
          "indexed": true,
          "internalType": "address",
          "name": "to",
          "type": "address"
        },
        {
          "indexed": false,
          "internalType": "uint256",
          "name": "value",
          "type": "uint256"
        }
      ],
      "name": "Transfer",
      "type": "event"
    },
    {
      "inputs": [
        {
          "internalType": "address",
          "name": "owner",
          "type": "address"
        },
        {
          "internalType": "address",
          "name": "spender",
          "type": "address"
        }
      ],
      "name": "allowance",
      "outputs": [
        {
          "internalType": "uint256",
          "name": "",
          "type": "uint256"
        }
      ],
      "stateMutability": "view",
      "type": "function",
      "constant": true
    },
    {
      "inputs": [
        {
          "internalType": "address",
          "name": "spender",
          "type": "address"
        },
        {
          "internalType": "uint256",
          "name": "amount",
          "type": "uint256"
        }
      ],
      "name": "approve",
      "outputs": [
        {
          "internalType": "bool",
          "name": "",
          "type": "bool"
        }
      ],
      "stateMutability": "nonpayable",
      "type": "function"
    },
    {
      "inputs": [
        {
          "internalType": "address",
          "name": "account",
          "type": "address"
        }
      ],
      "name": "balanceOf",
      "outputs": [
        {
          "internalType": "uint256",
          "name": "",
          "type": "uint256"
        }
      ],
      "stateMutability": "view",
      "type": "function",
      "constant": true
    },
    {
      "inputs": [],
      "name": "decimals",
      "outputs": [
        {
          "internalType": "uint8",
          "name": "",
          "type": "uint8"
        }
      ],
      "stateMutability": "view",
      "type": "function",
      "constant": true
    },
    {
      "inputs": [
        {
          "internalType": "address",
          "name": "spender",
          "type": "address"
        },
        {
          "internalType": "uint256",
          "name": "subtractedValue",
          "type": "uint256"
        }
      ],
      "name": "decreaseAllowance",
      "outputs": [
        {
          "internalType": "bool",
          "name": "",
          "type": "bool"
        }
      ],
      "stateMutability": "nonpayable",
      "type": "function"
    },
    {
      "inputs": [
        {
          "internalType": "address",
          "name": "spender",
          "type": "address"
        },
        {
          "internalType": "uint256",
          "name": "addedValue",
          "type": "uint256"
        }
      ],
      "name": "increaseAllowance",
      "outputs": [
        {
          "internalType": "bool",
          "name": "",
          "type": "bool"
        }
      ],
      "stateMutability": "nonpayable",
      "type": "function"
    },
    {
      "inputs": [
        {
          "internalType": "uint256",
          "name": "",
          "type": "uint256"
        }
      ],
      "name": "isStaked",
      "outputs": [
        {
          "internalType": "bool",
          "name": "",
          "type": "bool"
        }
      ],
      "stateMutability": "view",
      "type": "function",
      "constant": true
    },
    {
      "inputs": [],
      "name": "name",
      "outputs": [
        {
          "internalType": "string",
          "name": "",
          "type": "string"
        }
      ],
      "stateMutability": "view",
      "type": "function",
      "constant": true
    },
    {
      "inputs": [],
      "name": "nft",
      "outputs": [
        {
          "internalType": "contract IERC721",
          "name": "",
          "type": "address"
        }
      ],
      "stateMutability": "view",
      "type": "function",
      "constant": true
    },
    {
      "inputs": [
        {
          "internalType": "address",
          "name": "",
          "type": "address"
        },
        {
          "internalType": "address",
          "name": "",
          "type": "address"
        },
        {
          "internalType": "uint256",
          "name": "",
          "type": "uint256"
        },
        {
          "internalType": "bytes",
          "name": "",
          "type": "bytes"
        }
      ],
      "name": "onERC721Received",
      "outputs": [
        {
          "internalType": "bytes4",
          "name": "",
          "type": "bytes4"
        }
      ],
      "stateMutability": "nonpayable",
      "type": "function"
    },
    {
      "inputs": [],
      "name": "owner",
      "outputs": [
        {
          "internalType": "address",
          "name": "",
          "type": "address"
        }
      ],
      "stateMutability": "view",
      "type": "function",
      "constant": true
    },
    {
      "inputs": [],
      "name": "renounceOwnership",
      "outputs": [],
      "stateMutability": "nonpayable",
      "type": "function"
    },
    {
      "inputs": [],
      "name": "rewardsPerHour",
      "outputs": [
        {
          "internalType": "uint256",
          "name": "",
          "type": "uint256"
        }
      ],
      "stateMutability": "view",
      "type": "function",
      "constant": true
    },
    {
      "inputs": [],
      "name": "symbol",
      "outputs": [
        {
          "internalType": "string",
          "name": "",
          "type": "string"
        }
      ],
      "stateMutability": "view",
      "type": "function",
      "constant": true
    },
    {
      "inputs": [
        {
          "internalType": "uint256",
          "name": "",
          "type": "uint256"
        }
      ],
      "name": "tokenOwnerOf",
      "outputs": [
        {
          "internalType": "address",
          "name": "",
          "type": "address"
        }
      ],
      "stateMutability": "view",
      "type": "function",
      "constant": true
    },
    {
      "inputs": [
        {
          "internalType": "uint256",
          "name": "",
          "type": "uint256"
        }
      ],
      "name": "tokenStakedAt",
      "outputs": [
        {
          "internalType": "uint256",
          "name": "",
          "type": "uint256"
        }
      ],
      "stateMutability": "view",
      "type": "function",
      "constant": true
    },
    {
      "inputs": [],
      "name": "totalSupply",
      "outputs": [
        {
          "internalType": "uint256",
          "name": "",
          "type": "uint256"
        }
      ],
      "stateMutability": "view",
      "type": "function",
      "constant": true
    },
    {
      "inputs": [
        {
          "internalType": "address",
          "name": "to",
          "type": "address"
        },
        {
          "internalType": "uint256",
          "name": "amount",
          "type": "uint256"
        }
      ],
      "name": "transfer",
      "outputs": [
        {
          "internalType": "bool",
          "name": "",
          "type": "bool"
        }
      ],
      "stateMutability": "nonpayable",
      "type": "function"
    },
    {
      "inputs": [
        {
          "internalType": "address",
          "name": "from",
          "type": "address"
        },
        {
          "internalType": "address",
          "name": "to",
          "type": "address"
        },
        {
          "internalType": "uint256",
          "name": "amount",
          "type": "uint256"
        }
      ],
      "name": "transferFrom",
      "outputs": [
        {
          "internalType": "bool",
          "name": "",
          "type": "bool"
        }
      ],
      "stateMutability": "nonpayable",
      "type": "function"
    },
    {
      "inputs": [
        {
          "internalType": "address",
          "name": "newOwner",
          "type": "address"
        }
      ],
      "name": "transferOwnership",
      "outputs": [],
      "stateMutability": "nonpayable",
      "type": "function"
    },
    {
      "inputs": [
        {
          "internalType": "uint256",
          "name": "tokenId",
          "type": "uint256"
        }
      ],
      "name": "stake",
      "outputs": [],
      "stateMutability": "nonpayable",
      "type": "function"
    },
    {
      "inputs": [
        {
          "internalType": "uint256",
          "name": "tokenId",
          "type": "uint256"
        }
      ],
      "name": "calculateRewards",
      "outputs": [
        {
          "internalType": "uint256",
          "name": "",
          "type": "uint256"
        }
      ],
      "stateMutability": "view",
      "type": "function",
      "constant": true
    },
    {
      "inputs": [
        {
          "internalType": "uint256",
          "name": "tokenId",
          "type": "uint256"
        }
      ],
      "name": "unstake",
      "outputs": [],
      "stateMutability": "nonpayable",
      "type": "function"
    }
  ],
  "bytecode": "0x6080604052610e10620000176200016f60201b60201c565b600a620000259190620003e0565b600162000033919062000431565b6200003f9190620004ab565b600a553480156200004f57600080fd5b5060405162002be838038062002be883398181016040528101906200007591906200054d565b6040518060400160405280600681526020017f52657761726400000000000000000000000000000000000000000000000000008152506040518060400160405280600381526020017f52574400000000000000000000000000000000000000000000000000000000008152508160039081620000f29190620007ef565b508060049081620001049190620007ef565b505050620001276200011b6200017860201b60201c565b6200018060201b60201c565b80600660006101000a81548173ffffffffffffffffffffffffffffffffffffffff021916908373ffffffffffffffffffffffffffffffffffffffff16021790555050620008d6565b60006012905090565b600033905090565b6000600560009054906101000a900473ffffffffffffffffffffffffffffffffffffffff16905081600560006101000a81548173ffffffffffffffffffffffffffffffffffffffff021916908373ffffffffffffffffffffffffffffffffffffffff1602179055508173ffffffffffffffffffffffffffffffffffffffff168173ffffffffffffffffffffffffffffffffffffffff167f8be0079c531659141344cd1fd0a4f28419497f9722a3daafe3b4186f6b6457e060405160405180910390a35050565b7f4e487b7100000000000000000000000000000000000000000000000000000000600052601160045260246000fd5b60008160011c9050919050565b6000808291508390505b6001851115620002d457808604811115620002ac57620002ab62000246565b5b6001851615620002bc5780820291505b8081029050620002cc8562000275565b94506200028c565b94509492505050565b600082620002ef5760019050620003c2565b81620002ff5760009050620003c2565b8160018114620003185760028114620003235762000359565b6001915050620003c2565b60ff84111562000338576200033762000246565b5b8360020a91508482111562000352576200035162000246565b5b50620003c2565b5060208310610133831016604e8410600b8410161715620003935782820a9050838111156200038d576200038c62000246565b5b620003c2565b620003a2848484600162000282565b92509050818404811115620003bc57620003bb62000246565b5b81810290505b9392505050565b6000819050919050565b600060ff82169050919050565b6000620003ed82620003c9565b9150620003fa83620003d3565b9250620004297fffffffffffffffffffffffffffffffffffffffffffffffffffffffffffffffff8484620002dd565b905092915050565b60006200043e82620003c9565b91506200044b83620003c9565b92508282026200045b81620003c9565b9150828204841483151762000475576200047462000246565b5b5092915050565b7f4e487b7100000000000000000000000000000000000000000000000000000000600052601260045260246000fd5b6000620004b882620003c9565b9150620004c583620003c9565b925082620004d857620004d76200047c565b5b828204905092915050565b600080fd5b600073ffffffffffffffffffffffffffffffffffffffff82169050919050565b60006200051582620004e8565b9050919050565b620005278162000508565b81146200053357600080fd5b50565b60008151905062000547816200051c565b92915050565b600060208284031215620005665762000565620004e3565b5b6000620005768482850162000536565b91505092915050565b600081519050919050565b7f4e487b7100000000000000000000000000000000000000000000000000000000600052604160045260246000fd5b7f4e487b7100000000000000000000000000000000000000000000000000000000600052602260045260246000fd5b600060028204905060018216806200060157607f821691505b602082108103620006175762000616620005b9565b5b50919050565b60008190508160005260206000209050919050565b60006020601f8301049050919050565b600082821b905092915050565b600060088302620006817fffffffffffffffffffffffffffffffffffffffffffffffffffffffffffffffff8262000642565b6200068d868362000642565b95508019841693508086168417925050509392505050565b6000819050919050565b6000620006d0620006ca620006c484620003c9565b620006a5565b620003c9565b9050919050565b6000819050919050565b620006ec83620006af565b62000704620006fb82620006d7565b8484546200064f565b825550505050565b600090565b6200071b6200070c565b62000728818484620006e1565b505050565b5b8181101562000750576200074460008262000711565b6001810190506200072e565b5050565b601f8211156200079f5762000769816200061d565b620007748462000632565b8101602085101562000784578190505b6200079c620007938562000632565b8301826200072d565b50505b505050565b600082821c905092915050565b6000620007c460001984600802620007a4565b1980831691505092915050565b6000620007df8383620007b1565b9150826002028217905092915050565b620007fa826200057f565b67ffffffffffffffff8111156200081657620008156200058a565b5b620008228254620005e8565b6200082f82828562000754565b600060209050601f83116001811462000867576000841562000852578287015190505b6200085e8582620007d1565b865550620008ce565b601f19841662000877866200061d565b60005b82811015620008a1578489015182556001820191506020850194506020810190506200087a565b86831015620008c15784890151620008bd601f891682620007b1565b8355505b6001600288020188555050505b505050505050565b61230280620008e66000396000f3fe608060405234801561001057600080fd5b506004361061014d5760003560e01c8063715018a6116100c3578063a694fc3a1161007c578063a694fc3a146103ca578063a9059cbb146103e6578063baa51f8614610416578063d3ea435014610446578063dd62ed3e14610476578063f2fde38b146104a65761014d565b8063715018a61461030657806389885a59146103105780638da5cb5b146103405780638e7271fa1461035e57806395d89b411461037c578063a457c2d71461039a5761014d565b806324bf238c1161011557806324bf238c1461021e5780632e17de781461024e578063313ce5671461026a578063395093511461028857806347ccca02146102b857806370a08231146102d65761014d565b806306fdde0314610152578063095ea7b314610170578063150b7a02146101a057806318160ddd146101d057806323b872dd146101ee575b600080fd5b61015a6104c2565b604051610167919061154a565b60405180910390f35b61018a60048036038101906101859190611614565b610554565b604051610197919061166f565b60405180910390f35b6101ba60048036038101906101b591906117bf565b610577565b6040516101c7919061187d565b60405180910390f35b6101d861058b565b6040516101e591906118a7565b60405180910390f35b610208600480360381019061020391906118c2565b610595565b604051610215919061166f565b60405180910390f35b61023860048036038101906102339190611915565b6105c4565b60405161024591906118a7565b60405180910390f35b61026860048036038101906102639190611915565b6105dc565b005b610272610803565b60405161027f919061195e565b60405180910390f35b6102a2600480360381019061029d9190611614565b61080c565b6040516102af919061166f565b60405180910390f35b6102c0610843565b6040516102cd91906119d8565b60405180910390f35b6102f060048036038101906102eb91906119f3565b610869565b6040516102fd91906118a7565b60405180910390f35b61030e6108b1565b005b61032a60048036038101906103259190611915565b6108c5565b6040516103379190611a2f565b60405180910390f35b6103486108f8565b6040516103559190611a2f565b60405180910390f35b610366610922565b60405161037391906118a7565b60405180910390f35b610384610928565b604051610391919061154a565b60405180910390f35b6103b460048036038101906103af9190611614565b6109ba565b6040516103c1919061166f565b60405180910390f35b6103e460048036038101906103df9190611915565b610a31565b005b61040060048036038101906103fb9190611614565b610b5b565b60405161040d919061166f565b60405180910390f35b610430600480360381019061042b9190611915565b610b7e565b60405161043d919061166f565b60405180910390f35b610460600480360381019061045b9190611915565b610b9e565b60405161046d91906118a7565b60405180910390f35b610490600480360381019061048b9190611a4a565b610c39565b60405161049d91906118a7565b60405180910390f35b6104c060048036038101906104bb91906119f3565b610cc0565b005b6060600380546104d190611ab9565b80601f01602080910402602001604051908101604052809291908181526020018280546104fd90611ab9565b801561054a5780601f1061051f5761010080835404028352916020019161054a565b820191906000526020600020905b81548152906001019060200180831161052d57829003601f168201915b5050505050905090565b60008061055f610d43565b905061056c818585610d4b565b600191505092915050565b600063150b7a0260e01b9050949350505050565b6000600254905090565b6000806105a0610d43565b90506105ad858285610f14565b6105b8858585610fa0565b60019150509392505050565b60086020528060005260406000206000915090505481565b60006008600083815260200190815260200160002054426105fd9190611b19565b9050600062093a8090503373ffffffffffffffffffffffffffffffffffffffff166007600085815260200190815260200160002060009054906101000a900473ffffffffffffffffffffffffffffffffffffffff1673ffffffffffffffffffffffffffffffffffffffff16146106a8576040517f08c379a000000000000000000000000000000000000000000000000000000000815260040161069f90611bbf565b60405180910390fd5b808210156106eb576040517f08c379a00000000000000000000000000000000000000000000000000000000081526004016106e290611c51565b60405180910390fd5b6106fd336106f885610b9e565b611216565b600660009054906101000a900473ffffffffffffffffffffffffffffffffffffffff1673ffffffffffffffffffffffffffffffffffffffff166323b872dd3033866040518463ffffffff1660e01b815260040161075c93929190611c71565b600060405180830381600087803b15801561077657600080fd5b505af115801561078a573d6000803e3d6000fd5b505050506007600084815260200190815260200160002060006101000a81549073ffffffffffffffffffffffffffffffffffffffff021916905560086000848152602001908152602001600020600090556009600084815260200190815260200160002060006101000a81549060ff0219169055505050565b60006012905090565b600080610817610d43565b90506108388185856108298589610c39565b6108339190611ca8565b610d4b565b600191505092915050565b600660009054906101000a900473ffffffffffffffffffffffffffffffffffffffff1681565b60008060008373ffffffffffffffffffffffffffffffffffffffff1673ffffffffffffffffffffffffffffffffffffffff168152602001908152602001600020549050919050565b6108b961136c565b6108c360006113ea565b565b60076020528060005260406000206000915054906101000a900473ffffffffffffffffffffffffffffffffffffffff1681565b6000600560009054906101000a900473ffffffffffffffffffffffffffffffffffffffff16905090565b600a5481565b60606004805461093790611ab9565b80601f016020809104026020016040519081016040528092919081815260200182805461096390611ab9565b80156109b05780601f10610985576101008083540402835291602001916109b0565b820191906000526020600020905b81548152906001019060200180831161099357829003601f168201915b5050505050905090565b6000806109c5610d43565b905060006109d38286610c39565b905083811015610a18576040517f08c379a0000000000000000000000000000000000000000000000000000000008152600401610a0f90611d4e565b60405180910390fd5b610a258286868403610d4b565b60019250505092915050565b600660009054906101000a900473ffffffffffffffffffffffffffffffffffffffff1673ffffffffffffffffffffffffffffffffffffffff166342842e0e3330846040518463ffffffff1660e01b8152600401610a9093929190611c71565b600060405180830381600087803b158015610aaa57600080fd5b505af1158015610abe573d6000803e3d6000fd5b50505050336007600083815260200190815260200160002060006101000a81548173ffffffffffffffffffffffffffffffffffffffff021916908373ffffffffffffffffffffffffffffffffffffffff16021790555042600860008381526020019081526020016000208190555060016009600083815260200190815260200160002060006101000a81548160ff02191690831515021790555050565b600080610b66610d43565b9050610b73818585610fa0565b600191505092915050565b60096020528060005260406000206000915054906101000a900460ff1681565b60006009600083815260200190815260200160002060009054906101000a900460ff16610c00576040517f08c379a0000000000000000000000000000000000000000000000000000000008152600401610bf790611dba565b60405180910390fd5b6000600860008481526020019081526020016000205442610c219190611b19565b9050600a5481610c319190611dda565b915050919050565b6000600160008473ffffffffffffffffffffffffffffffffffffffff1673ffffffffffffffffffffffffffffffffffffffff16815260200190815260200160002060008373ffffffffffffffffffffffffffffffffffffffff1673ffffffffffffffffffffffffffffffffffffffff16815260200190815260200160002054905092915050565b610cc861136c565b600073ffffffffffffffffffffffffffffffffffffffff168173ffffffffffffffffffffffffffffffffffffffff1603610d37576040517f08c379a0000000000000000000000000000000000000000000000000000000008152600401610d2e90611e8e565b60405180910390fd5b610d40816113ea565b50565b600033905090565b600073ffffffffffffffffffffffffffffffffffffffff168373ffffffffffffffffffffffffffffffffffffffff1603610dba576040517f08c379a0000000000000000000000000000000000000000000000000000000008152600401610db190611f20565b60405180910390fd5b600073ffffffffffffffffffffffffffffffffffffffff168273ffffffffffffffffffffffffffffffffffffffff1603610e29576040517f08c379a0000000000000000000000000000000000000000000000000000000008152600401610e2090611fb2565b60405180910390fd5b80600160008573ffffffffffffffffffffffffffffffffffffffff1673ffffffffffffffffffffffffffffffffffffffff16815260200190815260200160002060008473ffffffffffffffffffffffffffffffffffffffff1673ffffffffffffffffffffffffffffffffffffffff168152602001908152602001600020819055508173ffffffffffffffffffffffffffffffffffffffff168373ffffffffffffffffffffffffffffffffffffffff167f8c5be1e5ebec7d5bd14f71427d1e84f3dd0314c0f7b2291e5b200ac8c7c3b92583604051610f0791906118a7565b60405180910390a3505050565b6000610f208484610c39565b90507fffffffffffffffffffffffffffffffffffffffffffffffffffffffffffffffff8114610f9a5781811015610f8c576040517f08c379a0000000000000000000000000000000000000000000000000000000008152600401610f839061201e565b60405180910390fd5b610f998484848403610d4b565b5b50505050565b600073ffffffffffffffffffffffffffffffffffffffff168373ffffffffffffffffffffffffffffffffffffffff160361100f576040517f08c379a0000000000000000000000000000000000000000000000000000000008152600401611006906120b0565b60405180910390fd5b600073ffffffffffffffffffffffffffffffffffffffff168273ffffffffffffffffffffffffffffffffffffffff160361107e576040517f08c379a000000000000000000000000000000000000000000000000000000000815260040161107590612142565b60405180910390fd5b6110898383836114b0565b60008060008573ffffffffffffffffffffffffffffffffffffffff1673ffffffffffffffffffffffffffffffffffffffff1681526020019081526020016000205490508181101561110f576040517f08c379a0000000000000000000000000000000000000000000000000000000008152600401611106906121d4565b60405180910390fd5b8181036000808673ffffffffffffffffffffffffffffffffffffffff1673ffffffffffffffffffffffffffffffffffffffff16815260200190815260200160002081905550816000808573ffffffffffffffffffffffffffffffffffffffff1673ffffffffffffffffffffffffffffffffffffffff168152602001908152602001600020600082825401925050819055508273ffffffffffffffffffffffffffffffffffffffff168473ffffffffffffffffffffffffffffffffffffffff167fddf252ad1be2c89b69c2b068fc378daa952ba7f163c4a11628f55a4df523b3ef846040516111fd91906118a7565b60405180910390a36112108484846114b5565b50505050565b600073ffffffffffffffffffffffffffffffffffffffff168273ffffffffffffffffffffffffffffffffffffffff1603611285576040517f08c379a000000000000000000000000000000000000000000000000000000000815260040161127c90612240565b60405180910390fd5b611291600083836114b0565b80600260008282546112a39190611ca8565b92505081905550806000808473ffffffffffffffffffffffffffffffffffffffff1673ffffffffffffffffffffffffffffffffffffffff168152602001908152602001600020600082825401925050819055508173ffffffffffffffffffffffffffffffffffffffff16600073ffffffffffffffffffffffffffffffffffffffff167fddf252ad1be2c89b69c2b068fc378daa952ba7f163c4a11628f55a4df523b3ef8360405161135491906118a7565b60405180910390a3611368600083836114b5565b5050565b611374610d43565b73ffffffffffffffffffffffffffffffffffffffff166113926108f8565b73ffffffffffffffffffffffffffffffffffffffff16146113e8576040517f08c379a00000000000000000000000000000000000000000000000000000000081526004016113df906122ac565b60405180910390fd5b565b6000600560009054906101000a900473ffffffffffffffffffffffffffffffffffffffff16905081600560006101000a81548173ffffffffffffffffffffffffffffffffffffffff021916908373ffffffffffffffffffffffffffffffffffffffff1602179055508173ffffffffffffffffffffffffffffffffffffffff168173ffffffffffffffffffffffffffffffffffffffff167f8be0079c531659141344cd1fd0a4f28419497f9722a3daafe3b4186f6b6457e060405160405180910390a35050565b505050565b505050565b600081519050919050565b600082825260208201905092915050565b60005b838110156114f45780820151818401526020810190506114d9565b60008484015250505050565b6000601f19601f8301169050919050565b600061151c826114ba565b61152681856114c5565b93506115368185602086016114d6565b61153f81611500565b840191505092915050565b600060208201905081810360008301526115648184611511565b905092915050565b6000604051905090565b600080fd5b600080fd5b600073ffffffffffffffffffffffffffffffffffffffff82169050919050565b60006115ab82611580565b9050919050565b6115bb816115a0565b81146115c657600080fd5b50565b6000813590506115d8816115b2565b92915050565b6000819050919050565b6115f1816115de565b81146115fc57600080fd5b50565b60008135905061160e816115e8565b92915050565b6000806040838503121561162b5761162a611576565b5b6000611639858286016115c9565b925050602061164a858286016115ff565b9150509250929050565b60008115159050919050565b61166981611654565b82525050565b60006020820190506116846000830184611660565b92915050565b600080fd5b600080fd5b7f4e487b7100000000000000000000000000000000000000000000000000000000600052604160045260246000fd5b6116cc82611500565b810181811067ffffffffffffffff821117156116eb576116ea611694565b5b80604052505050565b60006116fe61156c565b905061170a82826116c3565b919050565b600067ffffffffffffffff82111561172a57611729611694565b5b61173382611500565b9050602081019050919050565b82818337600083830152505050565b600061176261175d8461170f565b6116f4565b90508281526020810184848401111561177e5761177d61168f565b5b611789848285611740565b509392505050565b600082601f8301126117a6576117a561168a565b5b81356117b684826020860161174f565b91505092915050565b600080600080608085870312156117d9576117d8611576565b5b60006117e7878288016115c9565b94505060206117f8878288016115c9565b9350506040611809878288016115ff565b925050606085013567ffffffffffffffff81111561182a5761182961157b565b5b61183687828801611791565b91505092959194509250565b60007fffffffff0000000000000000000000000000000000000000000000000000000082169050919050565b61187781611842565b82525050565b6000602082019050611892600083018461186e565b92915050565b6118a1816115de565b82525050565b60006020820190506118bc6000830184611898565b92915050565b6000806000606084860312156118db576118da611576565b5b60006118e9868287016115c9565b93505060206118fa868287016115c9565b925050604061190b868287016115ff565b9150509250925092565b60006020828403121561192b5761192a611576565b5b6000611939848285016115ff565b91505092915050565b600060ff82169050919050565b61195881611942565b82525050565b6000602082019050611973600083018461194f565b92915050565b6000819050919050565b600061199e61199961199484611580565b611979565b611580565b9050919050565b60006119b082611983565b9050919050565b60006119c2826119a5565b9050919050565b6119d2816119b7565b82525050565b60006020820190506119ed60008301846119c9565b92915050565b600060208284031215611a0957611a08611576565b5b6000611a17848285016115c9565b91505092915050565b611a29816115a0565b82525050565b6000602082019050611a446000830184611a20565b92915050565b60008060408385031215611a6157611a60611576565b5b6000611a6f858286016115c9565b9250506020611a80858286016115c9565b9150509250929050565b7f4e487b7100000000000000000000000000000000000000000000000000000000600052602260045260246000fd5b60006002820490506001821680611ad157607f821691505b602082108103611ae457611ae3611a8a565b5b50919050565b7f4e487b7100000000000000000000000000000000000000000000000000000000600052601160045260246000fd5b6000611b24826115de565b9150611b2f836115de565b9250828203905081811115611b4757611b46611aea565b5b92915050565b7f596f752063616e277420756e7374616b65206265636175736520796f7520617260008201527f65206e6f7420746865206f776e65720000000000000000000000000000000000602082015250565b6000611ba9602f836114c5565b9150611bb482611b4d565b604082019050919050565b60006020820190508181036000830152611bd881611b9c565b9050919050565b7f596f75206e65656420746f207374616b6520666f72206174206c65617374203760008201527f2064617973000000000000000000000000000000000000000000000000000000602082015250565b6000611c3b6025836114c5565b9150611c4682611bdf565b604082019050919050565b60006020820190508181036000830152611c6a81611c2e565b9050919050565b6000606082019050611c866000830186611a20565b611c936020830185611a20565b611ca06040830184611898565b949350505050565b6000611cb3826115de565b9150611cbe836115de565b9250828201905080821115611cd657611cd5611aea565b5b92915050565b7f45524332303a2064656372656173656420616c6c6f77616e63652062656c6f7760008201527f207a65726f000000000000000000000000000000000000000000000000000000602082015250565b6000611d386025836114c5565b9150611d4382611cdc565b604082019050919050565b60006020820190508181036000830152611d6781611d2b565b9050919050565b7f5468697320546f6b656e20696420776173206e65766572207374616b65640000600082015250565b6000611da4601e836114c5565b9150611daf82611d6e565b602082019050919050565b60006020820190508181036000830152611dd381611d97565b9050919050565b6000611de5826115de565b9150611df0836115de565b9250828202611dfe816115de565b91508282048414831517611e1557611e14611aea565b5b5092915050565b7f4f776e61626c653a206e6577206f776e657220697320746865207a65726f206160008201527f6464726573730000000000000000000000000000000000000000000000000000602082015250565b6000611e786026836114c5565b9150611e8382611e1c565b604082019050919050565b60006020820190508181036000830152611ea781611e6b565b9050919050565b7f45524332303a20617070726f76652066726f6d20746865207a65726f2061646460008201527f7265737300000000000000000000000000000000000000000000000000000000602082015250565b6000611f0a6024836114c5565b9150611f1582611eae565b604082019050919050565b60006020820190508181036000830152611f3981611efd565b9050919050565b7f45524332303a20617070726f766520746f20746865207a65726f20616464726560008201527f7373000000000000000000000000000000000000000000000000000000000000602082015250565b6000611f9c6022836114c5565b9150611fa782611f40565b604082019050919050565b60006020820190508181036000830152611fcb81611f8f565b9050919050565b7f45524332303a20696e73756666696369656e7420616c6c6f77616e6365000000600082015250565b6000612008601d836114c5565b915061201382611fd2565b602082019050919050565b6000602082019050818103600083015261203781611ffb565b9050919050565b7f45524332303a207472616e736665722066726f6d20746865207a65726f20616460008201527f6472657373000000000000000000000000000000000000000000000000000000602082015250565b600061209a6025836114c5565b91506120a58261203e565b604082019050919050565b600060208201905081810360008301526120c98161208d565b9050919050565b7f45524332303a207472616e7366657220746f20746865207a65726f206164647260008201527f6573730000000000000000000000000000000000000000000000000000000000602082015250565b600061212c6023836114c5565b9150612137826120d0565b604082019050919050565b6000602082019050818103600083015261215b8161211f565b9050919050565b7f45524332303a207472616e7366657220616d6f756e742065786365656473206260008201527f616c616e63650000000000000000000000000000000000000000000000000000602082015250565b60006121be6026836114c5565b91506121c982612162565b604082019050919050565b600060208201905081810360008301526121ed816121b1565b9050919050565b7f45524332303a206d696e7420746f20746865207a65726f206164647265737300600082015250565b600061222a601f836114c5565b9150612235826121f4565b602082019050919050565b600060208201905081810360008301526122598161221d565b9050919050565b7f4f776e61626c653a2063616c6c6572206973206e6f7420746865206f776e6572600082015250565b60006122966020836114c5565b91506122a182612260565b602082019050919050565b600060208201905081810360008301526122c581612289565b905091905056fea2646970667358221220281b07995f6d91d36c621bf5270f2bbf25400dcd8807ba2ab24decb085a181e664736f6c63430008110033",
  "immutableReferences": {},
  "source": "// SPDX-License-Identifier: MIT\npragma solidity ^0.8.17;\n\nimport \"@openzeppelin/contracts/token/ERC20/ERC20.sol\";\nimport \"@openzeppelin/contracts/access/Ownable.sol\";\nimport \"@openzeppelin/contracts/token/ERC721/utils/ERC721Holder.sol\";\nimport \"@openzeppelin/contracts/token/ERC721/IERC721.sol\";\n\ncontract Rewards is ERC20, ERC721Holder, Ownable {\n    IERC721 public nft;\n    mapping(uint256 => address) public tokenOwnerOf;\n    mapping(uint256 => uint256) public tokenStakedAt;\n    mapping(uint256 => bool) public isStaked;\n    uint256 public rewardsPerHour = (1 * 10 ** decimals()) / 1 hours;\n\n    constructor(address _nft) ERC20(\"Reward\", \"RWD\") {\n        nft = IERC721(_nft);\n    }\n\n    function stake(uint256 tokenId) external {\n        nft.safeTransferFrom(msg.sender, address(this), tokenId);\n        tokenOwnerOf[tokenId] = msg.sender;\n        tokenStakedAt[tokenId] = block.timestamp;\n        isStaked[tokenId] = true;\n    }\n\n    function calculateRewards(uint256 tokenId) public view returns (uint256) {\n        require(isStaked[tokenId], \"This Token id was never staked\");\n        uint timeElapsed = block.timestamp - tokenStakedAt[tokenId];\n        return timeElapsed * rewardsPerHour;\n    }\n\n    function unstake(uint256 tokenId) external {\n        uint timeElapsed = block.timestamp - tokenStakedAt[tokenId];\n        uint minimumTime = 7 days;\n\n        require(tokenOwnerOf[tokenId] == msg.sender, \"You can't unstake because you are not the owner\");\n        require(timeElapsed >= minimumTime, \"You need to stake for at least 7 days\");\n\n        _mint(msg.sender, calculateRewards(tokenId));\n        nft.transferFrom(address(this), msg.sender, tokenId);\n        delete tokenOwnerOf[tokenId];\n        delete tokenStakedAt[tokenId];\n        delete isStaked[tokenId];\n    }\n}",
  "sourcePath": "/home/priyankgupta/Desktop/Gnosis NFT staking /contracts/Rewards.sol",
  "compiler": {
    "name": "solc",
    "version": "0.8.17+commit.8df45f5f.Emscripten.clang"
  },
  "schemaVersion": "3.4.11",
  "updatedAt": "2022-12-15T18:22:00.567Z",
  "networkType": "ethereum",
  "devdoc": {
    "kind": "dev",
    "methods": {
      "allowance(address,address)": {
        "details": "See {IERC20-allowance}."
      },
      "approve(address,uint256)": {
        "details": "See {IERC20-approve}. NOTE: If `amount` is the maximum `uint256`, the allowance is not updated on `transferFrom`. This is semantically equivalent to an infinite approval. Requirements: - `spender` cannot be the zero address."
      },
      "balanceOf(address)": {
        "details": "See {IERC20-balanceOf}."
      },
      "decimals()": {
        "details": "Returns the number of decimals used to get its user representation. For example, if `decimals` equals `2`, a balance of `505` tokens should be displayed to a user as `5.05` (`505 / 10 ** 2`). Tokens usually opt for a value of 18, imitating the relationship between Ether and Wei. This is the value {ERC20} uses, unless this function is overridden; NOTE: This information is only used for _display_ purposes: it in no way affects any of the arithmetic of the contract, including {IERC20-balanceOf} and {IERC20-transfer}."
      },
      "decreaseAllowance(address,uint256)": {
        "details": "Atomically decreases the allowance granted to `spender` by the caller. This is an alternative to {approve} that can be used as a mitigation for problems described in {IERC20-approve}. Emits an {Approval} event indicating the updated allowance. Requirements: - `spender` cannot be the zero address. - `spender` must have allowance for the caller of at least `subtractedValue`."
      },
      "increaseAllowance(address,uint256)": {
        "details": "Atomically increases the allowance granted to `spender` by the caller. This is an alternative to {approve} that can be used as a mitigation for problems described in {IERC20-approve}. Emits an {Approval} event indicating the updated allowance. Requirements: - `spender` cannot be the zero address."
      },
      "name()": {
        "details": "Returns the name of the token."
      },
      "onERC721Received(address,address,uint256,bytes)": {
        "details": "See {IERC721Receiver-onERC721Received}. Always returns `IERC721Receiver.onERC721Received.selector`."
      },
      "owner()": {
        "details": "Returns the address of the current owner."
      },
      "renounceOwnership()": {
        "details": "Leaves the contract without owner. It will not be possible to call `onlyOwner` functions anymore. Can only be called by the current owner. NOTE: Renouncing ownership will leave the contract without an owner, thereby removing any functionality that is only available to the owner."
      },
      "symbol()": {
        "details": "Returns the symbol of the token, usually a shorter version of the name."
      },
      "totalSupply()": {
        "details": "See {IERC20-totalSupply}."
      },
      "transfer(address,uint256)": {
        "details": "See {IERC20-transfer}. Requirements: - `to` cannot be the zero address. - the caller must have a balance of at least `amount`."
      },
      "transferFrom(address,address,uint256)": {
        "details": "See {IERC20-transferFrom}. Emits an {Approval} event indicating the updated allowance. This is not required by the EIP. See the note at the beginning of {ERC20}. NOTE: Does not update the allowance if the current allowance is the maximum `uint256`. Requirements: - `from` and `to` cannot be the zero address. - `from` must have a balance of at least `amount`. - the caller must have allowance for ``from``'s tokens of at least `amount`."
      },
      "transferOwnership(address)": {
        "details": "Transfers ownership of the contract to a new account (`newOwner`). Can only be called by the current owner."
      }
    },
    "version": 1
  },
  "userdoc": {
    "kind": "user",
    "methods": {},
    "version": 1
  }
}